S00E0000746573745F382E73726563BF
S3150800000000280020D9170008291700083517000806
S315080000103B170008411700084717000800000000B2
S315080000200000000000000000000000004D17000856
S315080000305917000800000000651700087117000826
S31508000040291800082918000829180008291800087E
S31508000050291800082918000829180008291800086E
S31508000060291800082918000829180008291800085E
S31508000070291800082918000829180008291800084E
S31508000080291800082918000829180008291800083E
S31508000090291800082918000829180008291800082E
S315080000A0291800082918000829180008291800081E
S315080000B0291800082918000829180008291800080E
S315080000C029180008291800082918000829180008FE
S315080000D0291800087D170008A11700082918000824
S315080000E02918000829180008000000002918000827
S315080000F029180008291800082918000829180008CE
S3150800010029180008291800082918000829180008BD
S3150800011029180008291800082918000829180008AD
S31508000120291800082918000829180008291800089D
S3150800013010B5054C237833B9044B13B10448AFF313
S3150800014000800123237010BD180000200000000065
S315080001507418000808B5034B1BB103490348AFF3ED
S31508000160008008BD000000001C000020741800086C
S3150800017080B400AF62B600BFBD4680BC704780B48D
S3150800018000AF72B600BFBD4680BC704780B500AFF1
S315080001900121102001F094F80121042001F090F8C3
S315080001A001214FF4804001F08BF800BF80BD80B577
S315080001B082B000AF4FF4E06000F096FD25233B7156
S315080001C00023BB710123FB713B1D184600F09EFD01
S315080001D000BF0837BD4680BD80B584B000AF4FF478
S315080001E016533B600023BB800023FB8000233B8122
S315080001F00023BB810C237B813B4619460B4801F043
S315080002007DF8012240F22551084801F050F90022F4
S3150800021040F22771054801F04AF90121034801F027
S3150800022027F900BF1037BD4680BD00BF0038014022
S3150800023080B582B000AF4FF40053BB800123BB7179
S315080002401023FB713B1D1946124800F062FC04237B
S31508000250BB800123BB710423FB713B1D19460E4865
S3150800026000F057FC4FF48063BB800423FB713B1DF1
S315080002701946094800F04DFC4FF40073BB8018235B
S31508000280FB713B1D1946044800F043FC00BF0837C4
S31508000290BD4680BD001001400008014080B584B00D
S315080002A000AF78600B467B800023FB810023FB812F
S315080002B01AE08021114801F061F90346012B10D19B
S315080002C0FB897A6813441B789BB219460B4801F0E0
S315080002D035F900BF4021094801F050F90346012BC2
S315080002E0F8D1FB890133FB81FA897B889A42E0D3EE
S315080002F000BF00BF1037BD4680BD00BF00380140B3
S3150800030080B584B000AF78600B46FB707B68FB60F5
S3150800031006E0F86800F048FEFB6803F58063FB60BA
S31508000320FB789B021A467B681344FA689A42F0D90E
S3150800033000BF00BF1037BD4680BD80B485B000AF92
S3150800034078600023FB607B6803331B781A067B689A
S3150800035002331B781B041A437B6801331B781B0284
S3150800036013437A68127813431A46FB681343FB60F3
S31508000370FB6818461437BD4680BC704780B500AF89
S31508000380FFF704FFFFF713FFFFF752FFFFF724FFFE
S3150800039001224FF40051064800F074FC00F018FDE5
S315080003A000F0E2FD342000F07BFE00BF80BD00BFF8
S315080003B00010014080B59CB000AF002387F86A3072
S315080003C0002387F86B30012387F8693000237B66A2
S315080003D016214048FFF762FFFFF7D1FE11213E487C
S315080003E0FFF78EFFFFF7C4FE68E000F003FD034643
S315080003F083F00103DBB2002B60D000F099FD38666C
S315080004003B1D1946386E00F05DF9034687F85F30E4
S3150800041000F040FD3B6E01331B78302B4ED097F829
S315080004205F30022B06D0022B47DC002B3AD0012B7B
S315080004300CD042E009212948FFF730FF0F21284850
S31508000440FFF72CFF012387F86B3037E00023FB66A4
S3150800045018E03A1DFB6E134404331846FFF76DFF88
S315080004607866FFF78CFE7A68FB6E1344796E184639
S3150800047000F0CCFD034687F86930FFF779FEFB6E7E
S315080004800433FB6697F858301A46FB6E9342E0D35E
S315080004903B7A1A4697F858309BB219461046FFF72A
S315080004A0FDFE0BE000F072FD13210E48FFF7F6FE85
S315080004B01F210D48FFF7F2FE00E000BF97F86B30EA
S315080004C083F00103DBB2002B8FD100BF00BF70376A
S315080004D0BD4680BD8C18000800300008A418000826
S315080004E0B0180008C0180008D418000880B500AF76
S315080004F030210C48FFF7D2FEFFF741FE0A4B1B6876
S315080005000A4A1360094B1B681A46094B1A60094BBD
S315080005101B68184600F0F8FA054B1B68984700BF99
S3150800052080BD00BFF4180008043000083800002019
S31508000530340000200030000880B582B000AF0346C2
S31508000540FB71FB790A2B02D100F07CFC03E0FB79F6
S31508000550184600F0C3FC00BF0837BD4680BD80B40E
S3150800056085B000AF0346FB71FB792F2B06D9FB79C3
S31508000570392B03D8FB79303BFB730BE0FB79402B17
S3150800058006D9FB79462B03D8FB79373BFB7301E089
S31508000590FF23FB73FB7B18461437BD4680BC7047A8
S315080005A090B585B000AF78600023FB737B681B7835
S315080005B01846FFF7D4FF03461B015CB27B6801337C
S315080005C01B781846FFF7CBFF03465BB223435BB2A3
S315080005D0FB73FB7B18461437BD4690BD90B585B0B6
S315080005E000AF78600023FB817B681B781846FFF70D
S315080005F0B6FF03461B031CB27B6801331B781846FB
S31508000600FFF7ADFF03461B021BB223431CB27B68F0
S3150800061002331B781846FFF7A2FF03461B011BB2DD
S3150800062023431CB27B6803331B781846FFF797FFF2
S3150800063003461BB223431BB2FB81FB8918461437BA
S31508000640BD4690BD90B585B000AF78600023FB60CD
S315080006507B681B781846FFF782FF03461C057B68F4
S3150800066001331B781846FFF77AFF03461B041C4321
S315080006707B6802331B781846FFF771FF03461B0396
S315080006801C437B6803331B781846FFF768FF03464D
S315080006901B021C437B6804331B781846FFF75FFF71
S315080006A003461B011C437B6805331B781846FFF776
S315080006B056FF03462343FB60FB6818461437BD46BE
S315080006C090BD000090B589B000AF7860396000230E
S315080006D0FB770023FB747B6802331846FFF760FF3D
S315080006E00346FB607B6801331B781846FFF737FF24
S315080006F00346FB720023BB6100237B613B68002233
S315080007001A607B681B78532B01D00223F3E1FB7A2E
S31508000710092B00F2738101A252F823F0450700085D
S3150800072065070008E10700085D080008D908000801
S31508000730E30800082B09000883090008A709000830
S31508000740D90900089C4B01221A709C4B04221A7086
S31508000750FB68DBB2033BDAB23B6883F8542002231A
S31508000760BB614FE1954B1B78042B18D1934B0122A3
S315080007701A70934B1B680133914A13608E4B012202
S315080007801A700223BB61FB68DAB2BB69DBB2D31A03
S31508000790DBB2013BDAB23B6883F8542032E1874B7F
S315080007A01B78012B03D0844B02221A702AE1834B53
S315080007B001221A70824B1B680133814A13607E4BF3
S315080007C001221A700223BB61FB68DAB2BB69DBB28D
S315080007D0D31ADBB2013BDAB23B6883F8542011E145
S315080007E0764B1B78042B18D1744B02221A70744B63
S315080007F01B680133724A13606F4B01221A70032378
S31508000800BB61FB68DAB2BB69DBB2D31ADBB2013B68
S31508000810DAB23B6883F85420F4E0684B1B78022B65
S3150800082003D0654B02221A70ECE0644B02221A7060
S31508000830634B1B680133624A13605F4B01221A70CF
S315080008400323BB61FB68DAB2BB69DBB2D31ADBB23E
S31508000850013BDAB23B6883F85420D3E0574B1B7848
S31508000860042B18D1554B03221A70554B1B680133BC
S31508000870534A1360504B01221A700423BB61FB686C
S31508000880DAB2BB69DBB2D31ADBB2013BDAB23B6838
S3150800089083F85420B6E0494B1B78032B03D0464B0C
S315080008A002221A70AEE0454B03221A70444B1B68AD
S315080008B00133434A1360404B01221A700423BB617B
S315080008C0FB68DAB2BB69DBB2D31ADBB2013BDAB238
S315080008D03B6883F8542095E03B68002283F854204F
S315080008E090E07B6804331846FFF778FE03461A46FD
S315080008F0334B1B689A4204D1314B1B68B3F5803FD2
S3150800090006D32D4B02221A702D4B00221A6005E0E1
S31508000910294B00221A702A4B00221A603B680022D3
S3150800092083F854200223BB616CE0BB6902335B0089
S315080009307A6813441846FFF785FE0246204B1B6863
S315080009409A420AD11E4B1B684FF6FE72934204D98F
S315080009501B4B1B68B3F1807F06D3174B02221A7014
S31508000960174B00221A6005E0134B00221A70144B2D
S3150800097000221A600323BB613B68002283F85420D7
S3150800098040E00E4B1B78032B03D10B4B00221A7049
S3150800099002E0094B02221A700423BB613B6800225D
S315080009A083F854202EE0054B1B78022B0AD1024B04
S315080009B000221A7009E000BF3C0000200000002059
S315080009C0400000204E4B02221A700323BB613B688D
S315080009D0002283F8542015E04A4B1B78012B03D1DB
S315080009E0474B00221A7002E0454B02221A70022376
S315080009F0BB613B68002283F8542003E0404B022287
S31508000A001A7000BF04237B6117E07A687B69134478
S31508000A101846FFF7C5FD034619467B695B08BA69A0
S31508000A20D31A0133DB0001FA03F23B681B681A4349
S31508000A303B681A607B6902337B61BB6902335B00E2
S31508000A407A699A42E1D313E07A687B69D118BB695F
S31508000A5002335B007A69D31A5C080846FFF7A0FDE3
S31508000A6003461A463B6823441A717B6902337B6145
S31508000A703B6893F8543002335B001A46BB695B0047
S31508000A8013447A699A42DFD3BB6902335B003A683A
S31508000A9092F85420520013447A6813441846FFF714
S31508000AA07FFD0346FB7402237B610DE07A687B6950
S31508000AB013441846FFF774FD03461A46FB7F134492
S31508000AC0FB777B6902337B61BB6902335B003A685B
S31508000AD092F85420520013447A699A42E6D3FB7F6F
S31508000AE0DB43FB77FA7FFB7C9A4202D0044B022257
S31508000AF01A70034B1B7818462437BD4690BD00BFB5
S31508000B003C00002000000020034683F30888704755
S31508000B1000BF80B489B000AF786039600023FB61FC
S31508000B2000233B610023BB610023FB6000237B613C
S31508000B300023BB603B68DB7803F00F03FB613B686F
S31508000B40DB7803F01003002B05D03B689B781A4628
S31508000B50FB691343FB613B681B88DBB2002B41D062
S31508000B607B681B687B610023BB6135E00122BB699A
S31508000B7002FA03F33B613B681B88DBB2FB60FA6849
S31508000B803B699A4225D1BB699B000F2202FA03F3FF
S31508000B90BB60BB68DB437A6913407B61BB699B001A
S31508000BA0FA6902FA03F37A6913437B613B68DB78D7
S31508000BB0282B05D10122BB699A407B685A6108E057
S31508000BC03B68DB78482B04D10122BB699A407B68D5
S31508000BD01A61BB690133BB61BB69072BC6D97B6840
S31508000BE07A691A603B681B8803F47F43002B44D05C
S31508000BF07B685B687B610023BB6138E00122BB69C7
S31508000C0002FA03F33B613B681B881B0A9BB2DBB203
S31508000C10FB60FA683B699A4226D1BB699B000F22A2
S31508000C2002FA03F3BB60BB68DB437A6913407B6156
S31508000C30BB699B00FA6902FA03F37A6913437B617D
S31508000C403B68DB78282B05D1BB69083301229A401B
S31508000C507B685A613B68DB78482B05D1BB6908334A
S31508000C6001229A407B681A61BB690133BB61BB6983
S31508000C70072BC3D97B687A695A6000BF2437BD46FB
S31508000C8080BC704780B485B000AFF860B960134681
S31508000C90FB71FB79012B06D1FB681A69BB681A43FD
S31508000CA0FB681A6102E0FB68BA685A6100BF14372C
S31508000CB0BD4680BC704780B485B000AF78603960A7
S31508000CC00023FB737B689A683B681340002B02D0AD
S31508000CD00123FB7301E00023FB73FB7B18461437E3
S31508000CE0BD4680BC7047000080B483B000AF786012
S31508000CF0054A7B6843F0BF6343F40033D36000BF03
S31508000D000C37BD4680BC704700ED00E080B487B064
S31508000D1000AF786000237B6100233B610F23FB60F3
S31508000D207B68DB78002B3AD0274BDB68DB431B0A52
S31508000D3003F007037B617B69C3F104033B61FA682F
S31508000D407B6922FA03F3FB607B685B781A463B698A
S31508000D5002FA03F37B617B689B781A46FB681340AB
S31508000D607A6913437B617B691B017B61174A7B6840
S31508000D701B787969C9B213440A4683F800237B684D
S31508000D801B7803F01F0311497A6812785209D2B208
S31508000D901046012202FA03F341F820300FE07B687F
S31508000DA01B7803F01F0309497A6812785209D2B2F0
S31508000DB0104601229A4000F1200341F8232000BF83
S31508000DC01C37BD4680BC704700ED00E000E100E03E
S31508000DD080B400AF064B00221A70054B00225A70E9
S31508000DE0034B00229A7000BFBD4680BC704700BF07
S31508000DF04800002080B483B000AF0023FB71064B87
S31508000E009B78002B01D10123FB71FB7918460C371F
S31508000E10BD4680BC704700BF4800002080B483B040
S31508000E2000AF0023FB71064B9B78042B01D10123ED
S31508000E30FB71FB7918460C37BD4680BC704700BF6E
S31508000E404800002080B582B000AF0123FB71FFF790
S31508000E50E5FF034683F00103DBB2002B0FD00B4BF3
S31508000E605B780133DAB2094B5A70084B9B78013329
S31508000E70DAB2064B9A70064B00221A8001E000236C
S31508000E80FB71FB7918460837BD4680BD480000202F
S31508000E904400002080B582B000AF0123FB71FFF744
S31508000EA0A9FF034683F00103DBB2002B0CD00A4BE3
S31508000EB01B780133DAB2084B1A70074B9B78013B53
S31508000EC0DAB2054B9A7001E00023FB71FB791846EC
S31508000ED00837BD4680BD00BF4800002080B485B0F5
S31508000EE000AF0346FB71FF23FB730F4B5B7803F0E0
S31508000EF00303FB73FB7B0D4A128810460A4A4FF41C
S31508000F00037101FB03F3134403440333FA791A709C
S31508000F10064B1B8801339AB2044B1A8000BF14375C
S31508000F20BD4680BC704700BF480000204400002032
S31508000F3080B483B000AFFF23FB710A4B1B7803F024
S31508000F400303FB71FB794FF4037202FB03F3054AB3
S31508000F50134403333B603B6818460C37BD4680BCD8
S31508000F60704700BF4800002080B400AF044B054A14
S31508000F705A60034B044A5A6000BFBD4680BC70479E
S31508000F800020024023016745AB89EFCD80B400AF4E
S31508000F90044B1B69034A43F08003136100BFBD4637
S31508000FA080BC70470020024080B584B000AF7860EE
S31508000FB00423FB734FF4302000F0AAF80346FB73B2
S31508000FC0FB7B042B1BD1104B1B690F4A43F0020312
S31508000FD013610D4A7B6853610B4B1B690A4A43F040
S31508000FE0400313614FF4302000F092F80346FB7378
S31508000FF0054B1A69044941F6FD7313400B61FB7BE7
S3150800100018461037BD4680BD0020024080B584B022
S3150800101000AF786039600423FB730023BB604FF48C
S31508001020005000F075F80346FB73FB7B042B2FD1A9
S315080010301A4B1B69194A43F0010313617B683A6826
S3150800104092B21A804FF4005000F062F80346FB7320
S31508001050FB7B042B15D17B680233BB603B681A0CFB
S31508001060BB6892B21A804FF4005000F051F803465C
S31508001070FB730A4B1A69094941F6FE7313400B6163
S3150800108006E0064B1A69054941F6FE7313400B61E3
S31508001090FB7B18461037BD4680BD00BF00200240C6
S315080010A080B483B000AF7860034A7B68D36000BF22
S315080010B00C37BD4680BC70470020024080B483B020
S315080010C000AF0423FB71114BDB6803F00103012B0E
S315080010D002D10123FB7113E00C4BDB6803F0040318
S315080010E0002B02D00223FB710AE0084BDB6803F0F1
S315080010F01003002B02D00323FB7101E00423FB71CC
S31508001100FB7918460C37BD4680BC70470020024064
S3150800111080B584B000AF78600423FB73FFF7CEFF79
S315080011200346FB7306E0FFF7C9FF0346FB737B68BC
S31508001130013B7B60FB7B012B02D17B68002BF2D144
S315080011407B68002B01D10523FB73FB7B1846103700
S31508001150BD4680BD80B487B000AF786000237B6150
S3150800116000233B610023FB600023BB604F4B5B6899
S3150800117003F00C037B617B69082B11D07B69082B74
S315080011803AD87B69002B03D07B69042B04D033E063
S315080011907B68474A1A6033E07B68454A1A602FE045
S315080011A0424B5B6803F470133B61404B5B6803F486
S315080011B08033FB603B699B0C02333B61FB68002B69
S315080011C006D13B693B4A03FB02F27B681A6017E0CB
S315080011D0364B5B6803F40033002B06D03B69354A6F
S315080011E003FB02F27B681A600AE03B69304A03FB9C
S315080011F002F27B681A6003E07B682D4A1A6000BF1A
S315080012002A4B5B6803F0F0037B617B691B097B61F2
S31508001210294A7B6913441B78DBB2BB607B681A6872
S31508001220BB68DA407B685A60204B5B6803F4E0636E
S315080012307B617B691B0A7B611F4A7B6913441B78A8
S31508001240DBB2BB607B685A68BB68DA407B689A6029
S31508001250164B5B6803F460537B617B69DB0A7B6131
S31508001260154A7B6913441B78DBB2BB607B685A68F6
S31508001270BB68DA407B68DA600C4B5B6803F4404372
S315080012807B617B699B0B7B610C4A7B6913441B78EA
S31508001290DBB2BB607B68DA68BB68B2FBF3F27B68DB
S315080012A01A6100BF1C37BD4680BC7047001002405B
S315080012B000127A0000093D000400002014000020F6
S315080012C080B483B000AF78600B46FB70FB78002BC8
S315080012D006D0094B9A6908497B6813438B6106E077
S315080012E0054B9A697B68DB43034913408B6100BF52
S315080012F00C37BD4680BC70470010024080B58CB0E4
S3150800130000AF786039600023FB620023BB620023CC
S315080013107B6200233B620023FB617B68FB617B6881
S315080013201B8A9BB2FB62FA6A4CF6FF731340FB6298
S315080013303B68DB881A46FB6A1343FB62FB6A9AB270
S315080013407B681A827B689B899BB2FB62FA6A4EF6B7
S31508001350F3131340FB623B689A883B681B89134367
S315080013609AB23B685B8913439BB21A46FB6A1343DE
S31508001370FB62FB6A9AB27B689A817B689B8A9BB2FE
S31508001380FB62FA6A4FF6FF431340FB623B689B8990
S315080013901A46FB6A1343FB62FB6A9AB27B689A8217
S315080013A007F108031846FFF7D5FEFB692E4A934254
S315080013B002D17B69BB6201E03B69BB627B689B89A2
S315080013C09BB21BB2002B0CDABA6A13469B00134475
S315080013D09A001A443B681B685B00B2FBF3F37B6216
S315080013E00BE0BA6A13469B0013449A001A443B68FA
S315080013F01B689B00B2FBF3F37B627B6A1B4AA2FB6A
S3150800140003235B091B01FB62FB6A1B09642202FBBF
S3150800141003F37A6AD31A3B627B689B899BB21BB239
S31508001420002B0CDA3B6ADB003233104AA2FB03239B
S315080014305B0903F00703FA6A1343FB620BE03B6A96
S315080014401B013233094AA2FB03235B0903F00F038E
S31508001450FA6A1343FB62FB6A9AB27B681A8100BF79
S315080014603037BD4680BD00BF003801401F85EB51AF
S3150800147080B483B000AF78600B46FB70FB78002B16
S3150800148008D07B689B899BB243F400539AB27B6869
S315080014909A8107E07B689B899BB223F400539AB232
S315080014A07B689A8100BF0C37BD4680BC704780B404
S315080014B087B000AF78600B467B8013467B700023AD
S315080014C03B610023FB600023BB6000237B617B68D4
S315080014D07B617B88DBB25B09DBB23B617B8803F00F
S315080014E01F03FB600122FB6802FA03F3BB603B693A
S315080014F0012B03D17B690C337B6109E03B69022B25
S3150800150003D17B6910337B6102E07B6914337B610D
S315080015107B78002B06D07B6919687B69BA680A4311
S315080015201A6006E07B691968BB68DA437B690A407A
S315080015301A6000BF1C37BD4680BC704780B483B0B4
S3150800154000AF78600B467B807B88C3F308039AB2AA
S315080015507B689A8000BF0C37BD4680BC704780B454
S3150800156083B000AF78607B689B889BB2C3F308039F
S315080015709BB218460C37BD4680BC704780B485B010
S3150800158000AF78600B467B800023FB737B681B8863
S315080015909AB27B8813409BB2002B02D00123FB73BF
S315080015A001E00023FB73FB7B18461437BD4680BC5D
S315080015B07047000080B500AF154B1B68144A43F00E
S315080015C001031360124B5A681149124B13404B60C2
S315080015D00F4B1B680E4A23F0847323F48033136081
S315080015E00B4B1B680A4A23F480231360084B5B687D
S315080015F0074A23F4FE035360054B4FF41F029A6013
S3150800160000F00CF8044B4FF000629A6000BF80BDF2
S31508001610001002400000FFF800ED00E080B500AFC2
S3150800162000F002F800BF80BD80B483B000AF00238D
S315080016307B6000233B603A4B1B68394A43F480338E
S315080016401360374B1B6803F400333B607B68013338
S315080016507B603B68002B03D17B68B3F5A06FF0D1A4
S315080016602F4B1B6803F40033002B02D001233B6089
S3150800167001E000233B603B68012B4BD1294B1B68DB
S31508001680284A43F010031360264B1B68254A23F0AB
S3150800169003031360234B1B68224A43F002031360BB
S315080016A01F4B1F4A5B6853601D4B1D4A5B6853609E
S315080016B01B4B5B681A4A43F480635360184B5B689C
S315080016C0174A23F47C135360154B5B68144A43F49A
S315080016D0E8135360124B1B68114A43F0807313607A
S315080016E000BF0F4B1B6803F00073002BF9D00C4B9F
S315080016F05B680B4A23F003035360094B5B68084A8F
S3150800170043F00203536000BF054B5B6803F00C030C
S31508001710082BF9D100BF0C37BD4680BC704700BF07
S31508001720001002400020024080B400AF00BFBD4652
S3150800173080BC704780B400AFFEE780B400AFFEE718
S3150800174080B400AFFEE780B400AFFEE780B400AF18
S3150800175000BFBD4680BC704780B400AF00BFBD4621
S3150800176080BC704780B400AF00BFBD4680BC7047E0
S3150800177080B400AF00BFBD4680BC704780B582B05C
S3150800178000AF0648FFF7EBFE0346FB71FB791846E8
S31508001790FEF7D2FE00BF0837BD4680BD00380140BF
S315080017A080B400AF00BFBD4680BC704780B500AFAF
S315080017B0FEF7E4FD04210748FFF77DFA0346002BF0
S315080017C002D1FEF7F7FD01E0FEF790FE002318466A
S315080017D080BD00BF000801400D488546FFF7EAFEB8
S315080017E00C480D490D4A002302E0D458C45004336E
S315080017F0C4188C42F9D30A4A0A4C002301E0136044
S315080018000432A242FBD300F011F8FFF7CFFFFEE740
S315080018100028002000000020180000202C190008CD
S31508001820180000207C080020FEE7000070B500269E
S315080018300C4D0D4C641BA410A64209D100F01AF8F1
S3150800184000260A4D0A4C641BA410A64205D170BD99
S3150800185055F8043B98470136EEE755F8043B984798
S315080018600136F2E72419000824190008241900088B
S3150800187028190008F8B500BFF8BC08BC9E46704792
S31108001880F8B500BFF8BC08BC9E467047CF
S3150800188C2D3E2043686F6F7365205372656320661F
S3150800189C696C650D0A0000004572726F72210D0A9B
S315080018AC00000000507265737320726573657421AD
S315080018BC0D0A00000A426F6F746C6F6164657220C2
S315080018CC646F6E650D0A000070726573732072651D
S315080018DC737461727420746F206A756D7020746FDE
S315080018EC206170700D0A000052756E2041707021CF
S315080018FC205072657373202853575F312B5245530A
S3150800190C45542920676F20746F20424F4F54204C42
S30D0800191C4F414445520D0A0033
S309080019245501000853
S309080019283101000873
S3150800192C0400000000000000010203040102030485
S30D0800193C060708090204060863
S705080017D902
