S0110000626C696E6B5F6C65642E737265636F
S31508003000001800204D360008513500085D350008C7
S31508003010653500086D3500087535000800000000A4
S315080030200000000000000000000000007D350008D8
S31508003030893500080000000095350008A13500080C
S315080030409D3600089D3600089D3600089D36000806
S315080030509D3600089D3600089D3600089D360008F6
S315080030609D3600089D3600089D3600089D360008E6
S315080030709D3600089D3600089D3600089D360008D6
S315080030809D3600089D3600089D3600089D360008C6
S315080030909D3600089D3600089D3600089D360008B6
S315080030A09D3600089D3600089D3600089D360008A6
S315080030B09D3600089D3600089D3600089D36000896
S315080030C09D3600089D3600089D3600089D36000886
S315080030D09D360008AD350008B93500089D3600084C
S315080030E09D3600089D360008000000009D36000841
S315080030F09D3600089D3600089D3600089D36000856
S315080031009D3600089D3600089D3600089D36000845
S315080031109D3600089D3600089D3600089D36000835
S315080031209D3600089D3600089D3600089D36000825
S3150800313010B5054C237833B9044B13B10448AFF3E3
S3150800314000800123237010BD00000020000000004D
S31508003150E836000808B5034B1BB103490348AFF32B
S31508003160008008BD0000000004000020E8360008C2
S3150800317080B483B000AF78607B684FF400521A8041
S315080031807B6801229A707B681022DA7000BF0C37C0
S31508003190BD4680BC704780B489B000AF786039609E
S315080031A00023FB6100233B610023BB610023FB6016
S315080031B000237B610023BB603B68DB7803F00F03C9
S315080031C0FB613B68DB7803F01003002B05D03B68F6
S315080031D09B781A46FB691343FB613B681B88DBB285
S315080031E0002B41D07B681B687B610023BB6135E0FF
S315080031F00122BB6902FA03F33B613B681B88DBB219
S31508003200FB60FA683B699A4225D1BB699B000F228D
S3150800321002FA03F3BB60BB68DB437A6913407B6140
S31508003220BB699B00FA6902FA03F37A6913437B6167
S315080032303B68DB78282B05D10122BB699A407B685D
S315080032405A6108E03B68DB78482B04D10122BB6948
S315080032509A407B681A61BB690133BB61BB69072B5E
S31508003260C6D97B687A691A603B681B8803F47F4372
S31508003270002B44D07B685B687B610023BB6138E028
S315080032800122BB6902FA03F33B613B681B881B0AF0
S315080032909BB2DBB2FB60FA683B699A4226D1BB69EE
S315080032A09B000F2202FA03F3BB60BB68DB437A6913
S315080032B013407B61BB699B00FA6902FA03F37A69DA
S315080032C013437B613B68DB78282B05D1BB69083340
S315080032D001229A407B685A613B68DB78482B05D106
S315080032E0BB69083301229A407B681A61BB690133BE
S315080032F0BB61BB69072BC3D97B687A695A6000BF73
S315080033002437BD4680BC704780B485B000AFF860EE
S31508003310B9601346FB71FB79012B06D1FB681A6964
S31508003320BB681A43FB681A6102E0FB68BA685A610F
S3150800333000BF1437BD4680BC704780B485B000AF67
S31508003340786039600023FB737B689A683B68134092
S31508003350002B02D00123FB7301E00023FB73FB7BE8
S3150800336018461437BD4680BC704780B582B000AF9A
S315080033707860396039687868FFF7DFFF0346012B04
S3150800338005D1002239687868FFF7BEFF04E00122FC
S3150800339039687868FFF7B8FF00BF0837BD4680BDB3
S315080033A080B483B000AF78600B46FB70FB78002BC7
S315080033B006D0094B9A6908497B6813438B6106E076
S315080033C0054B9A697B68DB43034913408B6100BF51
S315080033D00C37BD4680BC70470010024080B500AF70
S315080033E0154B1B68144A43F001031360124B5A68C5
S315080033F01149124B13404B600F4B1B680E4A23F0C2
S31508003400847323F4803313600B4B1B680A4A23F436
S3150800341080231360084B5B68074A23F4FE03536056
S31508003420054B4FF41F029A6000F00CF8044B4FF05E
S3150800343000629A6000BF80BD001002400000FFF8DD
S3150800344000ED00E080B500AF00F002F800BF80BDD7
S3150800345080B483B000AF00237B6000233B603A4B07
S315080034601B68394A43F480331360374B1B6803F4EF
S3150800347000333B607B6801337B603B68002B03D1DC
S315080034807B68B3F5A06FF0D12F4B1B6803F40033AC
S31508003490002B02D001233B6001E000233B603B6820
S315080034A0012B4BD1294B1B68284A43F010031360A4
S315080034B0264B1B68254A23F003031360234B1B681E
S315080034C0224A43F0020313601F4B1F4A5B6853608E
S315080034D01D4B1D4A5B6853601B4B5B681A4A43F4D5
S315080034E080635360184B5B68174A23F47C13536058
S315080034F0154B5B68144A43F4E8135360124B1B6878
S31508003500114A43F08073136000BF0F4B1B6803F02A
S315080035100073002BF9D00C4B5B680B4A23F00303AE
S315080035205360094B5B68084A43F00203536000BFC7
S31508003530054B5B6803F00C03082BF9D100BF0C3769
S31508003540BD4680BC704700BF001002400020024004
S3150800355080B400AF00BFBD4680BC704780B400AFE2
S3150800356000BFFDE780B400AF00BFFDE780B400AF41
S3150800357000BFFDE780B400AF00BFFDE780B400AF31
S3150800358000BFBD4680BC704780B400AF00BFBD46D3
S3150800359080BC704780B400AF00BFBD4680BC704792
S315080035A080B400AF00BFBD4680BC704780B400AF92
S315080035B000BFBD4680BC704780B400AF00BFBD46A3
S315080035C080BC704780B483B000AF00237B600023C3
S315080035D07B6002E07B6801337B607B68044A934228
S315080035E0F8D900BF00BF0C37BD4680BC704700BF86
S315080035F03F4B4C0080B500AF01211020FFF7D0FEED
S3150800360000BF80BD80B582B000AF3B1D1846FFF7EE
S31508003610AFFD3B1D19460348FFF7BDFD00BF083740
S31508003620BD4680BD0010014080B500AFFFF7E2FF40
S31508003630FFF7E8FF4FF400510348FFF796FEFFF740
S31508003640C1FF00BFF6E700BF001001400D488546E0
S31508003650FFF7C4FE0C480D490D4A002302E0D45872
S31508003660C4500433C4188C42F9D30A4A0A4C0023BE
S3150800367001E013600432A242FBD300F011F8FFF711
S31508003680D3FFFEE7001800200000002000000020FD
S3150800369008370008000000201C000020FEE7000094
S315080036A070B500260C4D0D4C641BA410A64209D11A
S315080036B000F01AF800260A4D0A4C641BA410A6420C
S315080036C005D170BD55F8043B98470136EEE755F825
S315080036D0043B98470136F2E7003700080037000830
S315080036E00037000804370008F8B500BFF8BC08BC66
S315080036F09E467047F8B500BFF8BC08BC9E467047A2
S309080037005531000829
S309080037043131000849
S7050800364D6F
